:020000040040BA
:1000000078340020310240002D0240002D024000D3
:100010002D0240002D0240002D0240000000000093
:100020000000000000000000000000002D02400061
:100030002D024000000000002D0240002D02400073
:100040002D0240002D0240002D0240002D024000F4
:100050002D0240002D0240002D0240002D024000E4
:100060002D0240002D0240002D0240002D024000D4
:100070002D0240002D0240002D0240002D024000C4
:100080002D0240002D0240002D0240002D024000B4
:100090002D0240002D0240002D0240002D024000A4
:1000A0002D0240002D0240002D0240002D02400094
:1000B0002D0240002D0240002D0240002D02400084
:1000C0002D0240002D0240002D0240002D02400074
:1000D0002D0240002D0240002D0240002D02400064
:1000E0002D0240002D0240002D0240002D02400054
:1000F0002D0240002D02400010B5054C237833B985
:10010000044B13B10448AFF300800123237010BDEA
:100110003404002000000000B80440000C4B43B140
:100120000C480D4910B5AFF300800C48036823B9A3
:1001300010BD0A48036833B97047094B002BF7D04C
:10014000BDE810401847064B002BF5D0184700BFFC
:1001500000000000B804400038040020B80440004B
:100160000000000010B54FF40042184B5A600920FF
:10017000174CA0470A20A0470B20A0470C20A047FF
:100180000D20A047134B4FF480021A61C3F8A02042
:100190001A63A3F5C06304225A61C3F8A0205A660B
:1001A000C3F890205A651A62C3F88420196F21F0B1
:1001B00004011967596F21F004015967C3F8C02081
:1001C000C3F8D420C3F8B02010BD00BF50180E40B3
:1001D000D901400000140E402F281ED81F280CD82B
:1001E000114B9A6901238340934318D0012303FAEA
:1001F00000F00D4B18610020704720380A4BD3F8EF
:1002000008210123834093430BD0012303FA00F01C
:10021000054BC3F800010020704701207047002003
:1002200070470020704700BF00040E40FEE700004A
:1002300000B583B0254B264A9A4210D0254B234A5D
:100240009A420CD2013B9B1A23F00303043313445C
:100250001F4951F8040B42F8040B9A42F9D11E4B86
:100260001E4A9A420AD2013B9B1A23F0030304332D
:100270001344002142F8041B9342FBD1184A194B46
:1002800023F07F039360EFF31083B3FA83F35B09EA
:10029000019372B6BFF35F8F0022134B1A7001995E
:1002A000124A136843F470031360BFF34F8FBFF318
:1002B0006F8F29B101220C4B1A70BFF35F8F62B6AA
:1002C0000B4B98470B4B9847FEE700BF0000002000
:1002D000B8044000340400207404002034040020DA
:1002E00000ED00E0000040000000002088ED00E08C
:1002F00021034000F902400008B5064B9847064824
:1003000006494FF48002C36B13F0040F0CBF4A631D
:100310000A63F8E765014000000E0E4000140E402D
:1003200070B50F4E0F4D761BB61018BF002405D0C8
:10033000013455F8043B9847A642F9D10A4E0B4DBB
:10034000761B00F0A7F8B61018BF002406D00134C1
:1003500055F8043B9847A642F9D170BD70BD00BF67
:10036000A0044000A0044000A8044000A0044000F5
:10037000024B13B1024800F005B8704700000000BE
:1003800091034000002301461A46184600F01EB8AB
:1003900038B50A4C0A4D641BA4100AD004F18043FE
:1003A000013B05EB8305013C55F804399847002CC7
:1003B000F9D1BDE8384000F077B800BFB80440007C
:1003C000B4044000704700BF704700BF2DE9F843F8
:1003D0002C4D0646286898460F469146FFF7F2FFD7
:1003E000294B1C68D4F84831002B3ED05A681F2A8C
:1003F0001CDC02F1010E76B103EB82010124C1F88D
:100400008890D3F8880194402043022EC3F88801D5
:10041000C1F8088123D00232C3F804E0286843F809
:100420002270FFF7D1FF0020BDE8F883174B0BB314
:100430004FF4C870AFF300800346D8B1D4F8482118
:100440000260002141600A46C4F848014FF0010EE5
:10045000C0F88811C0F88C11002EDCD0CCE7D3F89E
:100460008C110C43C3F88C41D5E704F5A673C4F88E
:100470004831BBE72868FFF7A7FF4FF0FF30BDE822
:10048000F88300BF3004002090044000000000000A
:1004900008000020F8B500BFF8BC08BC9E467047B5
:1004A000710340001D014000F8B500BFF8BC08BC56
:0804B0009E467047F900400070
:1004B800010000000000000000000000F40200201D
:1004C8005C030020C40300200000000000000000BE
:1004D8000000000000000000000000000000000014
:1004E8000000000000000000000000000000000004
:1004F80000000000000000000000000000000000F4
:1005080000000000000000000000000000000000E3
:1005180000000000000000000000000000000000D3
:1005280000000000000000000000000000000000C3
:1005380000000000000000000000000000000000B3
:1005480000000000000000000000000000000000A3
:100558000000000000000000000000000000000093
:1005680001000000000000000E33CDAB34126DE630
:10057800ECDE05000B000000000000000000000099
:100588000000000000000000000000000000000063
:100598000000000000000000000000000000000053
:1005A8000000000000000000000000000000000043
:1005B8000000000000000000000000000000000033
:0408E8005004002098
:040000050040023184
:00000001FF
